{
  "_format": "hh-sol-artifact-1",
  "contractName": "Exchange",
  "sourceName": "contracts/Exchange.sol",
  "abi": [
    {
      "inputs": [
        {
          "internalType": "address",
          "name": "_token",
          "type": "address"
        }
      ],
      "stateMutability": "nonpayable",
      "type": "constructor"
    },
    {
      "anonymous": false,
      "inputs": [
        {
          "indexed": true,
          "internalType": "address",
          "name": "owner",
          "type": "address"
        },
        {
          "indexed": true,
          "internalType": "address",
          "name": "spender",
          "type": "address"
        },
        {
          "indexed": false,
          "internalType": "uint256",
          "name": "value",
          "type": "uint256"
        }
      ],
      "name": "Approval",
      "type": "event"
    },
    {
      "anonymous": false,
      "inputs": [
        {
          "indexed": true,
          "internalType": "address",
          "name": "from",
          "type": "address"
        },
        {
          "indexed": true,
          "internalType": "address",
          "name": "to",
          "type": "address"
        },
        {
          "indexed": false,
          "internalType": "uint256",
          "name": "value",
          "type": "uint256"
        }
      ],
      "name": "Transfer",
      "type": "event"
    },
    {
      "inputs": [
        {
          "internalType": "uint256",
          "name": "_tokenAmount",
          "type": "uint256"
        }
      ],
      "name": "addLiquidity",
      "outputs": [
        {
          "internalType": "uint256",
          "name": "",
          "type": "uint256"
        }
      ],
      "stateMutability": "payable",
      "type": "function"
    },
    {
      "inputs": [
        {
          "internalType": "address",
          "name": "owner",
          "type": "address"
        },
        {
          "internalType": "address",
          "name": "spender",
          "type": "address"
        }
      ],
      "name": "allowance",
      "outputs": [
        {
          "internalType": "uint256",
          "name": "",
          "type": "uint256"
        }
      ],
      "stateMutability": "view",
      "type": "function"
    },
    {
      "inputs": [
        {
          "internalType": "address",
          "name": "spender",
          "type": "address"
        },
        {
          "internalType": "uint256",
          "name": "amount",
          "type": "uint256"
        }
      ],
      "name": "approve",
      "outputs": [
        {
          "internalType": "bool",
          "name": "",
          "type": "bool"
        }
      ],
      "stateMutability": "nonpayable",
      "type": "function"
    },
    {
      "inputs": [
        {
          "internalType": "address",
          "name": "account",
          "type": "address"
        }
      ],
      "name": "balanceOf",
      "outputs": [
        {
          "internalType": "uint256",
          "name": "",
          "type": "uint256"
        }
      ],
      "stateMutability": "view",
      "type": "function"
    },
    {
      "inputs": [],
      "name": "decimals",
      "outputs": [
        {
          "internalType": "uint8",
          "name": "",
          "type": "uint8"
        }
      ],
      "stateMutability": "view",
      "type": "function"
    },
    {
      "inputs": [
        {
          "internalType": "address",
          "name": "spender",
          "type": "address"
        },
        {
          "internalType": "uint256",
          "name": "subtractedValue",
          "type": "uint256"
        }
      ],
      "name": "decreaseAllowance",
      "outputs": [
        {
          "internalType": "bool",
          "name": "",
          "type": "bool"
        }
      ],
      "stateMutability": "nonpayable",
      "type": "function"
    },
    {
      "inputs": [
        {
          "internalType": "uint256",
          "name": "_miniTokens",
          "type": "uint256"
        }
      ],
      "name": "ethToTokenSwap",
      "outputs": [],
      "stateMutability": "payable",
      "type": "function"
    },
    {
      "inputs": [
        {
          "internalType": "uint256",
          "name": "_tokenSold",
          "type": "uint256"
        }
      ],
      "name": "getEthAmount",
      "outputs": [
        {
          "internalType": "uint256",
          "name": "",
          "type": "uint256"
        }
      ],
      "stateMutability": "view",
      "type": "function"
    },
    {
      "inputs": [],
      "name": "getReserve",
      "outputs": [
        {
          "internalType": "uint256",
          "name": "",
          "type": "uint256"
        }
      ],
      "stateMutability": "view",
      "type": "function"
    },
    {
      "inputs": [
        {
          "internalType": "uint256",
          "name": "_ethSold",
          "type": "uint256"
        }
      ],
      "name": "getTokenAmount",
      "outputs": [
        {
          "internalType": "uint256",
          "name": "",
          "type": "uint256"
        }
      ],
      "stateMutability": "view",
      "type": "function"
    },
    {
      "inputs": [
        {
          "internalType": "address",
          "name": "spender",
          "type": "address"
        },
        {
          "internalType": "uint256",
          "name": "addedValue",
          "type": "uint256"
        }
      ],
      "name": "increaseAllowance",
      "outputs": [
        {
          "internalType": "bool",
          "name": "",
          "type": "bool"
        }
      ],
      "stateMutability": "nonpayable",
      "type": "function"
    },
    {
      "inputs": [],
      "name": "name",
      "outputs": [
        {
          "internalType": "string",
          "name": "",
          "type": "string"
        }
      ],
      "stateMutability": "view",
      "type": "function"
    },
    {
      "inputs": [
        {
          "internalType": "uint256",
          "name": "_amount",
          "type": "uint256"
        }
      ],
      "name": "removeLiquidity",
      "outputs": [
        {
          "internalType": "uint256",
          "name": "",
          "type": "uint256"
        },
        {
          "internalType": "uint256",
          "name": "",
          "type": "uint256"
        }
      ],
      "stateMutability": "nonpayable",
      "type": "function"
    },
    {
      "inputs": [],
      "name": "symbol",
      "outputs": [
        {
          "internalType": "string",
          "name": "",
          "type": "string"
        }
      ],
      "stateMutability": "view",
      "type": "function"
    },
    {
      "inputs": [],
      "name": "tokenAddress",
      "outputs": [
        {
          "internalType": "address",
          "name": "",
          "type": "address"
        }
      ],
      "stateMutability": "view",
      "type": "function"
    },
    {
      "inputs": [
        {
          "internalType": "uint256",
          "name": "_tokensSold",
          "type": "uint256"
        },
        {
          "internalType": "uint256",
          "name": "_miniEth",
          "type": "uint256"
        }
      ],
      "name": "tokenToEthSwap",
      "outputs": [],
      "stateMutability": "nonpayable",
      "type": "function"
    },
    {
      "inputs": [],
      "name": "totalSupply",
      "outputs": [
        {
          "internalType": "uint256",
          "name": "",
          "type": "uint256"
        }
      ],
      "stateMutability": "view",
      "type": "function"
    },
    {
      "inputs": [
        {
          "internalType": "address",
          "name": "to",
          "type": "address"
        },
        {
          "internalType": "uint256",
          "name": "amount",
          "type": "uint256"
        }
      ],
      "name": "transfer",
      "outputs": [
        {
          "internalType": "bool",
          "name": "",
          "type": "bool"
        }
      ],
      "stateMutability": "nonpayable",
      "type": "function"
    },
    {
      "inputs": [
        {
          "internalType": "address",
          "name": "from",
          "type": "address"
        },
        {
          "internalType": "address",
          "name": "to",
          "type": "address"
        },
        {
          "internalType": "uint256",
          "name": "amount",
          "type": "uint256"
        }
      ],
      "name": "transferFrom",
      "outputs": [
        {
          "internalType": "bool",
          "name": "",
          "type": "bool"
        }
      ],
      "stateMutability": "nonpayable",
      "type": "function"
    }
  ],
  "bytecode": "0x60806040523480156200001157600080fd5b5060405162002cf438038062002cf48339818101604052810190620000379190620001ed565b6040518060400160405280600b81526020017f5a756e69737761702d56310000000000000000000000000000000000000000008152506040518060400160405280600781526020017f5a554e492d5631000000000000000000000000000000000000000000000000008152508160039081620000b4919062000499565b508060049081620000c6919062000499565b505050600073ffffffffffffffffffffffffffffffffffffffff168173ffffffffffffffffffffffffffffffffffffffff16036200013b576040517f08c379a00000000000000000000000000000000000000000000000000000000081526004016200013290620005e1565b60405180910390fd5b80600560006101000a81548173ffffffffffffffffffffffffffffffffffffffff021916908373ffffffffffffffffffffffffffffffffffffffff1602179055505062000603565b600080fd5b600073ffffffffffffffffffffffffffffffffffffffff82169050919050565b6000620001b58262000188565b9050919050565b620001c781620001a8565b8114620001d357600080fd5b50565b600081519050620001e781620001bc565b92915050565b60006020828403121562000206576200020562000183565b5b60006200021684828501620001d6565b91505092915050565b600081519050919050565b7f4e487b7100000000000000000000000000000000000000000000000000000000600052604160045260246000fd5b7f4e487b7100000000000000000000000000000000000000000000000000000000600052602260045260246000fd5b60006002820490506001821680620002a157607f821691505b602082108103620002b757620002b662000259565b5b50919050565b60008190508160005260206000209050919050565b60006020601f8301049050919050565b600082821b905092915050565b600060088302620003217fffffffffffffffffffffffffffffffffffffffffffffffffffffffffffffffff82620002e2565b6200032d8683620002e2565b95508019841693508086168417925050509392505050565b6000819050919050565b6000819050919050565b60006200037a620003746200036e8462000345565b6200034f565b62000345565b9050919050565b6000819050919050565b620003968362000359565b620003ae620003a58262000381565b848454620002ef565b825550505050565b600090565b620003c5620003b6565b620003d28184846200038b565b505050565b5b81811015620003fa57620003ee600082620003bb565b600181019050620003d8565b5050565b601f82111562000449576200041381620002bd565b6200041e84620002d2565b810160208510156200042e578190505b620004466200043d85620002d2565b830182620003d7565b50505b505050565b600082821c905092915050565b60006200046e600019846008026200044e565b1980831691505092915050565b60006200048983836200045b565b9150826002028217905092915050565b620004a4826200021f565b67ffffffffffffffff811115620004c057620004bf6200022a565b5b620004cc825462000288565b620004d9828285620003fe565b600060209050601f831160018114620005115760008415620004fc578287015190505b6200050885826200047b565b86555062000578565b601f1984166200052186620002bd565b60005b828110156200054b5784890151825560018201915060208501945060208101905062000524565b868310156200056b578489015162000567601f8916826200045b565b8355505b6001600288020188555050505b505050505050565b600082825260208201905092915050565b7f696e76616c696420746f6b656e20616464726573730000000000000000000000600082015250565b6000620005c960158362000580565b9150620005d68262000591565b602082019050919050565b60006020820190508181036000830152620005fc81620005ba565b9050919050565b6126e180620006136000396000f3fe6080604052600436106101145760003560e01c80638fc7a25d116100a0578063a9059cbb11610064578063a9059cbb146103f7578063c2507ac114610434578063dd62ed3e14610471578063e0486c8a146104ae578063f979dcd7146104d757610114565b80638fc7a25d146102e957806395d89b41146103265780639c8f9f23146103515780639d76ea581461038f578063a457c2d7146103ba57610114565b8063313ce567116100e7578063313ce567146101e9578063395093511461021457806351c6590a1461025157806359bf5d391461028157806370a08231146102ac57610114565b806306fdde0314610119578063095ea7b31461014457806318160ddd1461018157806323b872dd146101ac575b600080fd5b34801561012557600080fd5b5061012e6104f3565b60405161013b9190611915565b60405180910390f35b34801561015057600080fd5b5061016b600480360381019061016691906119d0565b610585565b6040516101789190611a2b565b60405180910390f35b34801561018d57600080fd5b506101966105a8565b6040516101a39190611a55565b60405180910390f35b3480156101b857600080fd5b506101d360048036038101906101ce9190611a70565b6105b2565b6040516101e09190611a2b565b60405180910390f35b3480156101f557600080fd5b506101fe6105e1565b60405161020b9190611adf565b60405180910390f35b34801561022057600080fd5b5061023b600480360381019061023691906119d0565b6105ea565b6040516102489190611a2b565b60405180910390f35b61026b60048036038101906102669190611afa565b610621565b6040516102789190611a55565b60405180910390f35b34801561028d57600080fd5b5061029661084e565b6040516102a39190611a55565b60405180910390f35b3480156102b857600080fd5b506102d360048036038101906102ce9190611b27565b6108f1565b6040516102e09190611a55565b60405180910390f35b3480156102f557600080fd5b50610310600480360381019061030b9190611afa565b610939565b60405161031d9190611a55565b60405180910390f35b34801561033257600080fd5b5061033b61099c565b6040516103489190611915565b60405180910390f35b34801561035d57600080fd5b5061037860048036038101906103739190611afa565b610a2e565b604051610386929190611b54565b60405180910390f35b34801561039b57600080fd5b506103a4610bbe565b6040516103b19190611b8c565b60405180910390f35b3480156103c657600080fd5b506103e160048036038101906103dc91906119d0565b610be4565b6040516103ee9190611a2b565b60405180910390f35b34801561040357600080fd5b5061041e600480360381019061041991906119d0565b610c5b565b60405161042b9190611a2b565b60405180910390f35b34801561044057600080fd5b5061045b60048036038101906104569190611afa565b610c7e565b6040516104689190611a55565b60405180910390f35b34801561047d57600080fd5b5061049860048036038101906104939190611ba7565b610ce1565b6040516104a59190611a55565b60405180910390f35b3480156104ba57600080fd5b506104d560048036038101906104d09190611be7565b610d68565b005b6104f160048036038101906104ec9190611afa565b610eb6565b005b60606003805461050290611c56565b80601f016020809104026020016040519081016040528092919081815260200182805461052e90611c56565b801561057b5780601f106105505761010080835404028352916020019161057b565b820191906000526020600020905b81548152906001019060200180831161055e57829003601f168201915b5050505050905090565b600080610590610fc5565b905061059d818585610fcd565b600191505092915050565b6000600254905090565b6000806105bd610fc5565b90506105ca858285611196565b6105d5858585611222565b60019150509392505050565b60006012905090565b6000806105f5610fc5565b90506106168185856106078589610ce1565b6106119190611cb6565b610fcd565b600191505092915050565b60008061062c61084e565b036106f2576000600560009054906101000a900473ffffffffffffffffffffffffffffffffffffffff1690508073ffffffffffffffffffffffffffffffffffffffff166323b872dd3330866040518463ffffffff1660e01b815260040161069593929190611cea565b6020604051808303816000875af11580156106b4573d6000803e3d6000fd5b505050506040513d601f19601f820116820180604052508101906106d89190611d4d565b5060004790506106e833826114a1565b8092505050610849565b600034476107009190611d7a565b9050600061070c61084e565b9050600082823461071d9190611dae565b6107279190611e1f565b90508085101561076c576040517f08c379a000000000000000000000000000000000000000000000000000000000815260040161076390611e9c565b60405180910390fd5b6000600560009054906101000a900473ffffffffffffffffffffffffffffffffffffffff1690508073ffffffffffffffffffffffffffffffffffffffff166323b872dd3330856040518463ffffffff1660e01b81526004016107d093929190611cea565b6020604051808303816000875af11580156107ef573d6000803e3d6000fd5b505050506040513d601f19601f820116820180604052508101906108139190611d4d565b50600084346108206105a8565b61082a9190611dae565b6108349190611e1f565b905061084033826114a1565b80955050505050505b919050565b6000600560009054906101000a900473ffffffffffffffffffffffffffffffffffffffff1673ffffffffffffffffffffffffffffffffffffffff166370a08231306040518263ffffffff1660e01b81526004016108ab9190611b8c565b602060405180830381865afa1580156108c8573d6000803e3d6000fd5b505050506040513d601f19601f820116820180604052508101906108ec9190611ed1565b905090565b60008060008373ffffffffffffffffffffffffffffffffffffffff1673ffffffffffffffffffffffffffffffffffffffff168152602001908152602001600020549050919050565b600080821161097d576040517f08c379a000000000000000000000000000000000000000000000000000000000815260040161097490611f4a565b60405180910390fd5b600061098761084e565b9050610994838247611600565b915050919050565b6060600480546109ab90611c56565b80601f01602080910402602001604051908101604052809291908181526020018280546109d790611c56565b8015610a245780601f106109f957610100808354040283529160200191610a24565b820191906000526020600020905b815481529060010190602001808311610a0757829003601f168201915b5050505050905090565b60008060008311610a74576040517f08c379a0000000000000000000000000000000000000000000000000000000008152600401610a6b90611fb6565b60405180910390fd5b6000610a7e6105a8565b8447610a8a9190611dae565b610a949190611e1f565b90506000610aa06105a8565b85610aa961084e565b610ab39190611dae565b610abd9190611e1f565b9050610ac933866116a5565b3373ffffffffffffffffffffffffffffffffffffffff166108fc839081150290604051600060405180830381858888f19350505050158015610b0f573d6000803e3d6000fd5b50600560009054906101000a900473ffffffffffffffffffffffffffffffffffffffff1673ffffffffffffffffffffffffffffffffffffffff1663a9059cbb33836040518363ffffffff1660e01b8152600401610b6d929190611fd6565b6020604051808303816000875af1158015610b8c573d6000803e3d6000fd5b505050506040513d601f19601f82011682018060405250810190610bb09190611d4d565b508181935093505050915091565b600560009054906101000a900473ffffffffffffffffffffffffffffffffffffffff1681565b600080610bef610fc5565b90506000610bfd8286610ce1565b905083811015610c42576040517f08c379a0000000000000000000000000000000000000000000000000000000008152600401610c3990612071565b60405180910390fd5b610c4f8286868403610fcd565b60019250505092915050565b600080610c66610fc5565b9050610c73818585611222565b600191505092915050565b6000808211610cc2576040517f08c379a0000000000000000000000000000000000000000000000000000000008152600401610cb9906120dd565b60405180910390fd5b6000610ccc61084e565b9050610cd9834783611600565b915050919050565b6000600160008473ffffffffffffffffffffffffffffffffffffffff1673ffffffffffffffffffffffffffffffffffffffff16815260200190815260200160002060008373ffffffffffffffffffffffffffffffffffffffff1673ffffffffffffffffffffffffffffffffffffffff16815260200190815260200160002054905092915050565b6000610d7261084e565b90506000610d81848347611600565b905082811015610dc6576040517f08c379a0000000000000000000000000000000000000000000000000000000008152600401610dbd90612149565b60405180910390fd5b600560009054906101000a900473ffffffffffffffffffffffffffffffffffffffff1673ffffffffffffffffffffffffffffffffffffffff166323b872dd3330876040518463ffffffff1660e01b8152600401610e2593929190611cea565b6020604051808303816000875af1158015610e44573d6000803e3d6000fd5b505050506040513d601f19601f82011682018060405250810190610e689190611d4d565b503373ffffffffffffffffffffffffffffffffffffffff166108fc829081150290604051600060405180830381858888f19350505050158015610eaf573d6000803e3d6000fd5b5050505050565b6000610ec061084e565b90506000610eda343447610ed49190611d7a565b84611600565b905082811015610f1f576040517f08c379a0000000000000000000000000000000000000000000000000000000008152600401610f1690612149565b60405180910390fd5b600560009054906101000a900473ffffffffffffffffffffffffffffffffffffffff1673ffffffffffffffffffffffffffffffffffffffff1663a9059cbb33836040518363ffffffff1660e01b8152600401610f7c929190611fd6565b6020604051808303816000875af1158015610f9b573d6000803e3d6000fd5b505050506040513d601f19601f82011682018060405250810190610fbf9190611d4d565b50505050565b600033905090565b600073ffffffffffffffffffffffffffffffffffffffff168373ffffffffffffffffffffffffffffffffffffffff160361103c576040517f08c379a0000000000000000000000000000000000000000000000000000000008152600401611033906121db565b60405180910390fd5b600073ffffffffffffffffffffffffffffffffffffffff168273ffffffffffffffffffffffffffffffffffffffff16036110ab576040517f08c379a00000000000000000000000000000000000000000000000000000000081526004016110a29061226d565b60405180910390fd5b80600160008573ffffffffffffffffffffffffffffffffffffffff1673ffffffffffffffffffffffffffffffffffffffff16815260200190815260200160002060008473ffffffffffffffffffffffffffffffffffffffff1673ffffffffffffffffffffffffffffffffffffffff168152602001908152602001600020819055508173ffffffffffffffffffffffffffffffffffffffff168373ffffffffffffffffffffffffffffffffffffffff167f8c5be1e5ebec7d5bd14f71427d1e84f3dd0314c0f7b2291e5b200ac8c7c3b925836040516111899190611a55565b60405180910390a3505050565b60006111a28484610ce1565b90507fffffffffffffffffffffffffffffffffffffffffffffffffffffffffffffffff811461121c578181101561120e576040517f08c379a0000000000000000000000000000000000000000000000000000000008152600401611205906122d9565b60405180910390fd5b61121b8484848403610fcd565b5b50505050565b600073ffffffffffffffffffffffffffffffffffffffff168373ffffffffffffffffffffffffffffffffffffffff1603611291576040517f08c379a00000000000000000000000000000000000000000000000000000000081526004016112889061236b565b60405180910390fd5b600073ffffffffffffffffffffffffffffffffffffffff168273ffffffffffffffffffffffffffffffffffffffff1603611300576040517f08c379a00000000000000000000000000000000000000000000000000000000081526004016112f7906123fd565b60405180910390fd5b61130b83838361187b565b60008060008573ffffffffffffffffffffffffffffffffffffffff1673ffffffffffffffffffffffffffffffffffffffff16815260200190815260200160002054905081811015611391576040517f08c379a00000000000000000000000000000000000000000000000000000000081526004016113889061248f565b60405180910390fd5b8181036000808673ffffffffffffffffffffffffffffffffffffffff1673ffffffffffffffffffffffffffffffffffffffff16815260200190815260200160002081905550816000808573ffffffffffffffffffffffffffffffffffffffff1673ffffffffffffffffffffffffffffffffffffffff16815260200190815260200160002060008282546114249190611cb6565b925050819055508273ffffffffffffffffffffffffffffffffffffffff168473ffffffffffffffffffffffffffffffffffffffff167fddf252ad1be2c89b69c2b068fc378daa952ba7f163c4a11628f55a4df523b3ef846040516114889190611a55565b60405180910390a361149b848484611880565b50505050565b600073ffffffffffffffffffffffffffffffffffffffff168273ffffffffffffffffffffffffffffffffffffffff1603611510576040517f08c379a0000000000000000000000000000000000000000000000000000000008152600401611507906124fb565b60405180910390fd5b61151c6000838361187b565b806002600082825461152e9190611cb6565b92505081905550806000808473ffffffffffffffffffffffffffffffffffffffff1673ffffffffffffffffffffffffffffffffffffffff16815260200190815260200160002060008282546115839190611cb6565b925050819055508173ffffffffffffffffffffffffffffffffffffffff16600073ffffffffffffffffffffffffffffffffffffffff167fddf252ad1be2c89b69c2b068fc378daa952ba7f163c4a11628f55a4df523b3ef836040516115e89190611a55565b60405180910390a36115fc60008383611880565b5050565b600080831180156116115750600082115b611650576040517f08c379a000000000000000000000000000000000000000000000000000000000815260040161164790612567565b60405180910390fd5b600060638561165f9190611dae565b90506000838261166f9190611dae565b90506000826064876116819190611dae565b61168b9190611cb6565b905080826116999190611e1f565b93505050509392505050565b600073ffffffffffffffffffffffffffffffffffffffff168273ffffffffffffffffffffffffffffffffffffffff1603611714576040517f08c379a000000000000000000000000000000000000000000000000000000000815260040161170b906125f9565b60405180910390fd5b6117208260008361187b565b60008060008473ffffffffffffffffffffffffffffffffffffffff1673ffffffffffffffffffffffffffffffffffffffff168152602001908152602001600020549050818110156117a6576040517f08c379a000000000000000000000000000000000000000000000000000000000815260040161179d9061268b565b60405180910390fd5b8181036000808573ffffffffffffffffffffffffffffffffffffffff1673ffffffffffffffffffffffffffffffffffffffff1681526020019081526020016000208190555081600260008282546117fd9190611d7a565b92505081905550600073ffffffffffffffffffffffffffffffffffffffff168373ffffffffffffffffffffffffffffffffffffffff167fddf252ad1be2c89b69c2b068fc378daa952ba7f163c4a11628f55a4df523b3ef846040516118629190611a55565b60405180910390a361187683600084611880565b505050565b505050565b505050565b600081519050919050565b600082825260208201905092915050565b60005b838110156118bf5780820151818401526020810190506118a4565b60008484015250505050565b6000601f19601f8301169050919050565b60006118e782611885565b6118f18185611890565b93506119018185602086016118a1565b61190a816118cb565b840191505092915050565b6000602082019050818103600083015261192f81846118dc565b905092915050565b600080fd5b600073ffffffffffffffffffffffffffffffffffffffff82169050919050565b60006119678261193c565b9050919050565b6119778161195c565b811461198257600080fd5b50565b6000813590506119948161196e565b92915050565b6000819050919050565b6119ad8161199a565b81146119b857600080fd5b50565b6000813590506119ca816119a4565b92915050565b600080604083850312156119e7576119e6611937565b5b60006119f585828601611985565b9250506020611a06858286016119bb565b9150509250929050565b60008115159050919050565b611a2581611a10565b82525050565b6000602082019050611a406000830184611a1c565b92915050565b611a4f8161199a565b82525050565b6000602082019050611a6a6000830184611a46565b92915050565b600080600060608486031215611a8957611a88611937565b5b6000611a9786828701611985565b9350506020611aa886828701611985565b9250506040611ab9868287016119bb565b9150509250925092565b600060ff82169050919050565b611ad981611ac3565b82525050565b6000602082019050611af46000830184611ad0565b92915050565b600060208284031215611b1057611b0f611937565b5b6000611b1e848285016119bb565b91505092915050565b600060208284031215611b3d57611b3c611937565b5b6000611b4b84828501611985565b91505092915050565b6000604082019050611b696000830185611a46565b611b766020830184611a46565b9392505050565b611b868161195c565b82525050565b6000602082019050611ba16000830184611b7d565b92915050565b60008060408385031215611bbe57611bbd611937565b5b6000611bcc85828601611985565b9250506020611bdd85828601611985565b9150509250929050565b60008060408385031215611bfe57611bfd611937565b5b6000611c0c858286016119bb565b9250506020611c1d858286016119bb565b9150509250929050565b7f4e487b7100000000000000000000000000000000000000000000000000000000600052602260045260246000fd5b60006002820490506001821680611c6e57607f821691505b602082108103611c8157611c80611c27565b5b50919050565b7f4e487b7100000000000000000000000000000000000000000000000000000000600052601160045260246000fd5b6000611cc18261199a565b9150611ccc8361199a565b9250828201905080821115611ce457611ce3611c87565b5b92915050565b6000606082019050611cff6000830186611b7d565b611d0c6020830185611b7d565b611d196040830184611a46565b949350505050565b611d2a81611a10565b8114611d3557600080fd5b50565b600081519050611d4781611d21565b92915050565b600060208284031215611d6357611d62611937565b5b6000611d7184828501611d38565b91505092915050565b6000611d858261199a565b9150611d908361199a565b9250828203905081811115611da857611da7611c87565b5b92915050565b6000611db98261199a565b9150611dc48361199a565b9250828202611dd28161199a565b91508282048414831517611de957611de8611c87565b5b5092915050565b7f4e487b7100000000000000000000000000000000000000000000000000000000600052601260045260246000fd5b6000611e2a8261199a565b9150611e358361199a565b925082611e4557611e44611df0565b5b828204905092915050565b7f696e73756666696369656e7420746f6b656e20616d6f756e7400000000000000600082015250565b6000611e86601983611890565b9150611e9182611e50565b602082019050919050565b60006020820190508181036000830152611eb581611e79565b9050919050565b600081519050611ecb816119a4565b92915050565b600060208284031215611ee757611ee6611937565b5b6000611ef584828501611ebc565b91505092915050565b7f746f6b656e536f6c6420697320746f6f20736d616c6c00000000000000000000600082015250565b6000611f34601683611890565b9150611f3f82611efe565b602082019050919050565b60006020820190508181036000830152611f6381611f27565b9050919050565b7f696e76616c696420616d6f756e74000000000000000000000000000000000000600082015250565b6000611fa0600e83611890565b9150611fab82611f6a565b602082019050919050565b60006020820190508181036000830152611fcf81611f93565b9050919050565b6000604082019050611feb6000830185611b7d565b611ff86020830184611a46565b9392505050565b7f45524332303a2064656372656173656420616c6c6f77616e63652062656c6f7760008201527f207a65726f000000000000000000000000000000000000000000000000000000602082015250565b600061205b602583611890565b915061206682611fff565b604082019050919050565b6000602082019050818103600083015261208a8161204e565b9050919050565b7f657468536f6c6420697320746f6f20736d616c6c000000000000000000000000600082015250565b60006120c7601483611890565b91506120d282612091565b602082019050919050565b600060208201905081810360008301526120f6816120ba565b9050919050565b7f696e73756666696369656e74206f757470757420616d6f756e74000000000000600082015250565b6000612133601a83611890565b915061213e826120fd565b602082019050919050565b6000602082019050818103600083015261216281612126565b9050919050565b7f45524332303a20617070726f76652066726f6d20746865207a65726f2061646460008201527f7265737300000000000000000000000000000000000000000000000000000000602082015250565b60006121c5602483611890565b91506121d082612169565b604082019050919050565b600060208201905081810360008301526121f4816121b8565b9050919050565b7f45524332303a20617070726f766520746f20746865207a65726f20616464726560008201527f7373000000000000000000000000000000000000000000000000000000000000602082015250565b6000612257602283611890565b9150612262826121fb565b604082019050919050565b600060208201905081810360008301526122868161224a565b9050919050565b7f45524332303a20696e73756666696369656e7420616c6c6f77616e6365000000600082015250565b60006122c3601d83611890565b91506122ce8261228d565b602082019050919050565b600060208201905081810360008301526122f2816122b6565b9050919050565b7f45524332303a207472616e736665722066726f6d20746865207a65726f20616460008201527f6472657373000000000000000000000000000000000000000000000000000000602082015250565b6000612355602583611890565b9150612360826122f9565b604082019050919050565b6000602082019050818103600083015261238481612348565b9050919050565b7f45524332303a207472616e7366657220746f20746865207a65726f206164647260008201527f6573730000000000000000000000000000000000000000000000000000000000602082015250565b60006123e7602383611890565b91506123f28261238b565b604082019050919050565b60006020820190508181036000830152612416816123da565b9050919050565b7f45524332303a207472616e7366657220616d6f756e742065786365656473206260008201527f616c616e63650000000000000000000000000000000000000000000000000000602082015250565b6000612479602683611890565b91506124848261241d565b604082019050919050565b600060208201905081810360008301526124a88161246c565b9050919050565b7f45524332303a206d696e7420746f20746865207a65726f206164647265737300600082015250565b60006124e5601f83611890565b91506124f0826124af565b602082019050919050565b60006020820190508181036000830152612514816124d8565b9050919050565b7f696e76616c696420726573657276657300000000000000000000000000000000600082015250565b6000612551601083611890565b915061255c8261251b565b602082019050919050565b6000602082019050818103600083015261258081612544565b9050919050565b7f45524332303a206275726e2066726f6d20746865207a65726f2061646472657360008201527f7300000000000000000000000000000000000000000000000000000000000000602082015250565b60006125e3602183611890565b91506125ee82612587565b604082019050919050565b60006020820190508181036000830152612612816125d6565b9050919050565b7f45524332303a206275726e20616d6f756e7420657863656564732062616c616e60008201527f6365000000000000000000000000000000000000000000000000000000000000602082015250565b6000612675602283611890565b915061268082612619565b604082019050919050565b600060208201905081810360008301526126a481612668565b905091905056fea26469706673582212202c191649a5ad3bc77a8c2c903d085380a081282bc849bf287565a5bac50db2fa64736f6c63430008110033",
  "linkReferences": {},
  "deployedLinkReferences": {}
}