{
  "_format": "hh-sol-artifact-1",
  "contractName": "Exchange",
  "sourceName": "contracts/Exchange.sol",
  "abi": [
    {
      "inputs": [
        {
          "internalType": "address",
          "name": "_token",
          "type": "address"
        }
      ],
      "stateMutability": "nonpayable",
      "type": "constructor"
    },
    {
      "inputs": [
        {
          "internalType": "uint256",
          "name": "_tokenAmount",
          "type": "uint256"
        }
      ],
      "name": "addLiquidity",
      "outputs": [],
      "stateMutability": "payable",
      "type": "function"
    },
    {
      "inputs": [
        {
          "internalType": "uint256",
          "name": "_miniTokens",
          "type": "uint256"
        }
      ],
      "name": "ethToTokenSwap",
      "outputs": [],
      "stateMutability": "payable",
      "type": "function"
    },
    {
      "inputs": [
        {
          "internalType": "uint256",
          "name": "_tokenSold",
          "type": "uint256"
        }
      ],
      "name": "getEthAmount",
      "outputs": [
        {
          "internalType": "uint256",
          "name": "",
          "type": "uint256"
        }
      ],
      "stateMutability": "view",
      "type": "function"
    },
    {
      "inputs": [],
      "name": "getReserve",
      "outputs": [
        {
          "internalType": "uint256",
          "name": "",
          "type": "uint256"
        }
      ],
      "stateMutability": "view",
      "type": "function"
    },
    {
      "inputs": [
        {
          "internalType": "uint256",
          "name": "_ethSold",
          "type": "uint256"
        }
      ],
      "name": "getTokenAmount",
      "outputs": [
        {
          "internalType": "uint256",
          "name": "",
          "type": "uint256"
        }
      ],
      "stateMutability": "view",
      "type": "function"
    },
    {
      "inputs": [],
      "name": "tokenAddress",
      "outputs": [
        {
          "internalType": "address",
          "name": "",
          "type": "address"
        }
      ],
      "stateMutability": "view",
      "type": "function"
    },
    {
      "inputs": [
        {
          "internalType": "uint256",
          "name": "_tokensSold",
          "type": "uint256"
        },
        {
          "internalType": "uint256",
          "name": "_miniEth",
          "type": "uint256"
        }
      ],
      "name": "tokenToEthSwap",
      "outputs": [],
      "stateMutability": "nonpayable",
      "type": "function"
    }
  ],
  "bytecode": "0x60806040523480156200001157600080fd5b5060405162000e3538038062000e3583398181016040528101906200003791906200015a565b600073ffffffffffffffffffffffffffffffffffffffff168173ffffffffffffffffffffffffffffffffffffffff1603620000a9576040517f08c379a0000000000000000000000000000000000000000000000000000000008152600401620000a090620001ed565b60405180910390fd5b806000806101000a81548173ffffffffffffffffffffffffffffffffffffffff021916908373ffffffffffffffffffffffffffffffffffffffff160217905550506200020f565b600080fd5b600073ffffffffffffffffffffffffffffffffffffffff82169050919050565b60006200012282620000f5565b9050919050565b620001348162000115565b81146200014057600080fd5b50565b600081519050620001548162000129565b92915050565b600060208284031215620001735762000172620000f0565b5b6000620001838482850162000143565b91505092915050565b600082825260208201905092915050565b7f696e76616c696420746f6b656e20616464726573730000000000000000000000600082015250565b6000620001d56015836200018c565b9150620001e2826200019d565b602082019050919050565b600060208201905081810360008301526200020881620001c6565b9050919050565b610c16806200021f6000396000f3fe6080604052600436106100705760003560e01c80639d76ea581161004e5780639d76ea58146100f9578063c2507ac114610124578063e0486c8a14610161578063f979dcd71461018a57610070565b806351c6590a1461007557806359bf5d39146100915780638fc7a25d146100bc575b600080fd5b61008f600480360381019061008a91906106ec565b6101a6565b005b34801561009d57600080fd5b506100a6610251565b6040516100b39190610728565b60405180910390f35b3480156100c857600080fd5b506100e360048036038101906100de91906106ec565b6102f3565b6040516100f09190610728565b60405180910390f35b34801561010557600080fd5b5061010e610356565b60405161011b9190610784565b60405180910390f35b34801561013057600080fd5b5061014b600480360381019061014691906106ec565b61037a565b6040516101589190610728565b60405180910390f35b34801561016d57600080fd5b506101886004803603810190610183919061079f565b6103dd565b005b6101a4600480360381019061019f91906106ec565b610529565b005b60008060009054906101000a900473ffffffffffffffffffffffffffffffffffffffff1690508073ffffffffffffffffffffffffffffffffffffffff166323b872dd3330856040518463ffffffff1660e01b8152600401610209939291906107df565b6020604051808303816000875af1158015610228573d6000803e3d6000fd5b505050506040513d601f19601f8201168201806040525081019061024c919061084e565b505050565b60008060009054906101000a900473ffffffffffffffffffffffffffffffffffffffff1673ffffffffffffffffffffffffffffffffffffffff166370a08231306040518263ffffffff1660e01b81526004016102ad9190610784565b602060405180830381865afa1580156102ca573d6000803e3d6000fd5b505050506040513d601f19601f820116820180604052508101906102ee9190610890565b905090565b6000808211610337576040517f08c379a000000000000000000000000000000000000000000000000000000000815260040161032e9061091a565b60405180910390fd5b6000610341610251565b905061034e838247610636565b915050919050565b60008054906101000a900473ffffffffffffffffffffffffffffffffffffffff1681565b60008082116103be576040517f08c379a00000000000000000000000000000000000000000000000000000000081526004016103b590610986565b60405180910390fd5b60006103c8610251565b90506103d5834783610636565b915050919050565b60006103e7610251565b905060006103f6848347610636565b90508281101561043b576040517f08c379a0000000000000000000000000000000000000000000000000000000008152600401610432906109f2565b60405180910390fd5b60008054906101000a900473ffffffffffffffffffffffffffffffffffffffff1673ffffffffffffffffffffffffffffffffffffffff166323b872dd3330876040518463ffffffff1660e01b8152600401610498939291906107df565b6020604051808303816000875af11580156104b7573d6000803e3d6000fd5b505050506040513d601f19601f820116820180604052508101906104db919061084e565b503373ffffffffffffffffffffffffffffffffffffffff166108fc829081150290604051600060405180830381858888f19350505050158015610522573d6000803e3d6000fd5b5050505050565b6000610533610251565b9050600061054d3434476105479190610a41565b84610636565b905082811015610592576040517f08c379a0000000000000000000000000000000000000000000000000000000008152600401610589906109f2565b60405180910390fd5b60008054906101000a900473ffffffffffffffffffffffffffffffffffffffff1673ffffffffffffffffffffffffffffffffffffffff1663a9059cbb33836040518363ffffffff1660e01b81526004016105ed929190610a75565b6020604051808303816000875af115801561060c573d6000803e3d6000fd5b505050506040513d601f19601f82011682018060405250810190610630919061084e565b50505050565b600080831180156106475750600082115b610686576040517f08c379a000000000000000000000000000000000000000000000000000000000815260040161067d90610aea565b60405180910390fd5b83836106929190610b0a565b828561069e9190610b3e565b6106a89190610baf565b90509392505050565b600080fd5b6000819050919050565b6106c9816106b6565b81146106d457600080fd5b50565b6000813590506106e6816106c0565b92915050565b600060208284031215610702576107016106b1565b5b6000610710848285016106d7565b91505092915050565b610722816106b6565b82525050565b600060208201905061073d6000830184610719565b92915050565b600073ffffffffffffffffffffffffffffffffffffffff82169050919050565b600061076e82610743565b9050919050565b61077e81610763565b82525050565b60006020820190506107996000830184610775565b92915050565b600080604083850312156107b6576107b56106b1565b5b60006107c4858286016106d7565b92505060206107d5858286016106d7565b9150509250929050565b60006060820190506107f46000830186610775565b6108016020830185610775565b61080e6040830184610719565b949350505050565b60008115159050919050565b61082b81610816565b811461083657600080fd5b50565b60008151905061084881610822565b92915050565b600060208284031215610864576108636106b1565b5b600061087284828501610839565b91505092915050565b60008151905061088a816106c0565b92915050565b6000602082840312156108a6576108a56106b1565b5b60006108b48482850161087b565b91505092915050565b600082825260208201905092915050565b7f746f6b656e536f6c6420697320746f6f20736d616c6c00000000000000000000600082015250565b60006109046016836108bd565b915061090f826108ce565b602082019050919050565b60006020820190508181036000830152610933816108f7565b9050919050565b7f657468536f6c6420697320746f6f20736d616c6c000000000000000000000000600082015250565b60006109706014836108bd565b915061097b8261093a565b602082019050919050565b6000602082019050818103600083015261099f81610963565b9050919050565b7f696e73756666696369656e74206f757470757420616d6f756e74000000000000600082015250565b60006109dc601a836108bd565b91506109e7826109a6565b602082019050919050565b60006020820190508181036000830152610a0b816109cf565b9050919050565b7f4e487b7100000000000000000000000000000000000000000000000000000000600052601160045260246000fd5b6000610a4c826106b6565b9150610a57836106b6565b9250828203905081811115610a6f57610a6e610a12565b5b92915050565b6000604082019050610a8a6000830185610775565b610a976020830184610719565b9392505050565b7f696e76616c696420726573657276657300000000000000000000000000000000600082015250565b6000610ad46010836108bd565b9150610adf82610a9e565b602082019050919050565b60006020820190508181036000830152610b0381610ac7565b9050919050565b6000610b15826106b6565b9150610b20836106b6565b9250828201905080821115610b3857610b37610a12565b5b92915050565b6000610b49826106b6565b9150610b54836106b6565b9250828202610b62816106b6565b91508282048414831517610b7957610b78610a12565b5b5092915050565b7f4e487b7100000000000000000000000000000000000000000000000000000000600052601260045260246000fd5b6000610bba826106b6565b9150610bc5836106b6565b925082610bd557610bd4610b80565b5b82820490509291505056fea2646970667358221220e9a925e61ca25c9013561dedb1fcfb38f67acc9702a1b4d1b46bfc374dc8d26064736f6c63430008110033",
  "linkReferences": {},
  "deployedLinkReferences": {}
}